:100000000C94FF010C9446020C9446020C94460298
:100010000C9446020C9446020C9446020C94460240
:100020000C9446020C9446020C94A81E0C947C1F5F
:100030000C945A180C9446020C9446020C944602F6
:100040000C9446020C9446020C9446020C94460210
:100050000C9446020C94B1180C9446020C9446027F
:100060000C9446020C9446020C9446020C944602F0
:100070000C9446020C9446020C9446020C944602E0
:100080000C9446020C9446020C9446020C944602D0
:100090000C9446020C9446020C9446020C944602C0
:1000A0000C9446020C9446020C944602290014005B
:1000B0001A000800150017001C0018000C001200A0
:1000C00013002A002B0004001600070009000A0094
:1000D0000B000D000E000F0033002800E1001D0092
:1000E0001B00060019000500110010003600370043
:1000F00052003800E000E300E200035101512C00FF
:1001000000000251E600500051004F0035021E026F
:100110001F022002210222022302240225022602BB
:1001200027024C003900010001000100010001001C
:100130002F02300231023402320228000100640230
:1001400001000100010001002D022E02010001004A
:100150000100010001000100010001000100010097
:10016000000001000100AC00AE00AB0035001E0035
:100170001F0020002100220023002400250026006B
:1001800027004C00390001000100010001000100BE
:100190002F003000310034003200280001006400DC
:1001A00001000100010001002D002E0001000100EE
:1001B000A90001000100010001000100010001008F
:1001C0000000010001000100AA00A8003A003B0065
:1001D0003C003D003E003F00400041004200430023
:1001E0004400450001000100010001000100010080
:1001F0004B004E0049004A004D004C000100010038
:100200000100010001000100010001000100F100F6
:10021000ED00F200010001000100010001000100F9
:10022000000001000100EF00EE00F000005C015C46
:1002300001000100010001000100010001000100B6
:1002400047004C0001000100010001000100135CA7
:100250000A5C295D010001000100010001000100AC
:100260000100010001000100010001000100010086
:100270000100010001000100010001000100010076
:100280000000010001000100010001001A035400F8
:10029000650063006C0061006400690074006F0019
:1002A00077003400300000000C0354006F0077002A
:1002B0003900360000000403090409023B00020172
:1002C00000A0FA0904000001030101000921110145
:1002D00000012240000705810308000A090401000B
:1002E000010300000009211101000122B6000705E9
:1002F000820320000A1201100100000008EDFEF048
:10030000B000000102000105010902A101850209F6
:1003100001A1000509190129081500250195087595
:100320000181020501093009311581257F9502758A
:1003300008810609381581257F9501750881060514
:100340000C0A38021581257F950175088106C0C009
:1003500005010980A101850319012AB700150126AD
:10036000B700950175108100C0050C0901A1018538
:100370000419012AA002150126A002950175108119
:1003800000C005010906A1018505050719E029E757
:10039000150025019508750181020507190029EF4F
:1003A0001500250195F0750181020508190129053F
:1003B000950575019102950175039101C00501092B
:1003C00006A101050719E029E71500250195087523
:1003D0000181029501750881010507190029FF15A2
:1003E0000026FF00950675088100050819012905FA
:1003F000950575019102950175039101C0001124C5
:100400001FBECFEFDAE0DEBFCDBF04B603FE27C0CC
:100410008091800290918102A0918202B09183022A
:100420008730904BA740B04BD1F4109280021092CD
:100430008102109282021092830214BE84B7877FD9
:1004400084BF0FB6F894A89580916000886180936E
:100450006000109260000FBEE0E0F8E3099511E043
:10046000A0E0B1E0E0E9F3E402C005900D92A83805
:10047000B107D9F722E0A8E8B1E001C01D92A03889
:10048000B207E1F70E94E21B0C949E210C9400003D
:100490000F9304E022E041E00E94BF020F91089513
:1004A00089329D4549F4FB018281882331F080E047
:1004B0000E94AC0280E0089581E0089581E00895F3
:1004C0000C94500208950C9462021F93CF93DF9313
:1004D00000D000D00F92CDB7DEB749835A836B832B
:1004E0003091B50189819A8131111DC06623B9F01F
:1004F0002223A9F00E945015182F682F89819A8114
:100500000E94FC1469817A81812F0F900F900F90C7
:100510000F900F90DF91CF911F910C947C030E945C
:100520002815182FEFCF0E94501569817A81EDCFE1
:10053000FC01262F408151816281738184810C945A
:100540006502CF93DF93EC0160E00E949802BE0148
:10055000DF91CF910C946302CF93DF93C1E0D0E0A1
:1005600002C0CC0FDD1F8A95E2F78C2F0E94AE16D9
:10057000BE0190E080E0DF91CF910C9400148F9247
:100580009F92AF92BF92CF92DF92EF92FF920F9322
:100590001F936B017C0181E090E0A0E0B0E04C0192
:1005A0005D0104C0880C991CAA1CBB1C4A95D2F79B
:1005B000B501A4014C015D0104C0880C991CAA1C62
:1005C000BB1C2A95D2F7482959296A297B2904C0DE
:1005D000880F991FAA1FBB1F0A95D2F78A019B019A
:1005E0000C211D212E213F2104171507260737074F
:1005F00089F48C299D29AE29BF29BC01CD011F9109
:100600000F91FF90EF90DF90CF90BF90AF909F90B1
:100610008F90089580959095A095B0958C219D21FF
:10062000AE21BF21EACF0E949616811102C00E941E
:1006300044170C9488050C948B0508950E9468104B
:100640000E941D032FEF84E39CE0215080409040E6
:10065000E1F700C000000C94D5180F931F93CF93BF
:10066000DF93EC0161E00E9498028C01BE010E94C0
:100670006002882329F1BE01C8010E94BE098823B7
:10068000F9F0BE01C8010E94100A8823C9F0BE011A
:10069000C8010E94330B882399F08A81882339F09E
:1006A00001158CE5180751F00F3D1C4579F0CE017E
:1006B000DF91CF911F910F910C945E020E941E0357
:1006C00080E0DF91CF911F910F9108950E94441710
:1006D000F7CF08950C94690381E008950C946C039E
:1006E000CF93C82F0E946A038C2FCF910C946E0376
:1006F00090E080E008950895972F70E02CE0929F9D
:10070000600D711D1124FB0190E3899FE00DF11D27
:100710001124EE0FFF1FE455FF4F8591949108952A
:10072000FC01EE0FFF1FE457FD4F85919491089552
:10073000CF93DF930E947C030E94AD04EC018115EE
:1007400020E5920708F042C0811530E4930708F0D5
:10075000BDC0883E910528F5803E910508F09DC0FA
:10076000883A910588F4853A910508F08FC0813068
:10077000910509F492C0009709F48FC0049708F01E
:100780008CC0D0E0C0E089C08F3B910508F489C0DF
:10079000805C9109C03CD105A0F30E949003EC015C
:1007A0007CC08115904250F4C11581E0D80708F053
:1007B00074C0CD3ED10528F3D0656FC0C11590E35C
:1007C000D90708F079C0CE019F70E7CF811525E5E4
:1007D000920758F5811534E5930708F0A6C08115F6
:1007E00042E5940750F4C11581E5D80708F471C0BB
:1007F000DC2FCC27C16FD06A50C0982F9695969564
:100800009E0123703327C115D34508F07FC0C1E096
:10081000D0E002C0CC0FDD1F2A95E2F720E2929FC4
:10082000C0011124C82BD92B6FC0C11589E5D80789
:10083000A8F4C11598E5D90708F07CC0C11526E5D4
:10084000D20708F09ECF8C2F0E944405C82FD0E01D
:10085000DC2FCC27CC27DF71D0621FC0C1153AE551
:10086000D30708F46CC0CE0190568115904208F071
:1008700088CF8D2F8F710E94440590E0982F882794
:1008800088279F719C012C2BE901E6CFC55AD0E047
:10089000CD5BDE4FC881D0E0D064CE01DF91CF9137
:1008A0000895C85AD0E0CC0FDD1FCB5EDE4F099013
:1008B000D881C02DD464F1CFCE019927D3FF03C0D6
:1008C000EC01D86CEACFEC01D06CE7CFDF70D06AD6
:1008D000E4CFCE01E4E096958795EA95E1F7837041
:1008E0002C2F26952695237090E2299F90011124A4
:1008F000382B8C2F8370C1E0D0E002C0CC0FDD1FFD
:100900008A95E2F7C22BD32BDC68C7CFC1E0D0E0D9
:1009100002C0CC0FDD1F2A95E2F730E2939FC001A1
:100920001124C82BD92BDA68B8CFD82FCC27C46FA5
:10093000D06AB3CFDC2FCC27C06FD06AAECF8C2F5C
:100940008F700E94440534E0D695C7953A95E1F73B
:10095000CF709C2FEC01D069A0CF82389105B1F106
:10096000B0F48133910509F475C048F489329105DA
:1009700009F469C08A32910509F473C0089585337A
:10098000910509F459C08933910501F10895833E19
:100990009105A9F138F4803E9105F9F0823E910568
:1009A00049F10895863E9105A9F1873E9105C9F167
:1009B000843E910519F52091720221FF1FC080919C
:1009C000710284FD14C087EE90E0089520917102B9
:1009D0002370A1F080EE90E008952091710220FD37
:1009E00047C03091720230FF09C024FF44C090E03C
:1009F00080E004C02091710222FDF7CF089520917C
:100A0000710222FD3BC03091720230FDE3CF24FF22
:100A1000F5CFEDCF2091710223FFF0CF24FDE7CF7A
:100A2000D2CF2091710223FD2CC03091720231FF90
:100A3000EECF84EE90E008952091710225FFDECF85
:100A400089E290E008952091710225FFD7CF85E3D8
:100A500090E008952091710226FFD0CF8AE290E0C5
:100A600008952091710226FFC9CF81E390E0089597
:100A700089E390E0089583EE90E0089582EE90E09F
:100A8000089586EE90E008959091710292FF06C05D
:100A9000282F28712830F9F4877F846093FF06C0DF
:100AA000282F28712831F1F4877E84612091720209
:100AB00020FF06C0382F38713830D9F4877F816025
:100AC00021FF06C0282F28712831D1F4877E81614B
:100AD00094FD877E0895282F24712430F9F68B7FAA
:100AE0008860DCCF282F2471243101F78B7E886148
:100AF000DDCF382F3171313019F78E7F8860E0CF2C
:100B0000282F2171213121F78E7E8861E1CF089550
:100B10000C94870508950C948A05E82FF0E0EE0FF9
:100B2000FF1FEB59FD4F808191810895089580EA60
:100B30008A95F1F7089500C008950C949705F894EC
:100B4000E82FE295EF70F0E031A1282F2F7081E0BF
:100B500090E001C0880F2A95EAF7982F909593238B
:100B600091A392A1892B82A378940895CF93DF93C8
:100B7000C6E4D1E089910E949F0581E0C235D80783
:100B8000C9F785EF0E949F0586EF0E949F0587EFBA
:100B90000E949F0586E30E949F0510925E021092BC
:100BA0005D0210926602109265021092600210922D
:100BB0005F02109268021092670210926202109215
:100BC000610210926A0210926902109264021092FD
:100BD000630210926C0210926B0284E00E948D06F8
:100BE000DF91CF910C9413036F927F929F92AF92FB
:100BF000BF92CF92DF92EF92FF920F931F93CF930A
:100C0000DF9396E4E92E91E0F92ED0E0C0E010E009
:100C1000CC24C394D12C35E6A32E32E0B32ED701D9
:100C20008D917D01F894E82FE295EF70F0E021A11D
:100C30008F70A60102C0440F551F8A95E2F7CA01C2
:100C4000922F982B91A392A18095892382A37894C7
:100C50000E949B05A6010C2E02C0440F551F0A944A
:100C6000E2F7BA0160957095EDE5F2E082E5682E55
:100C700081E0782E00E021913191D3019D903D01DA
:100C8000892D82958F7090E0DC0190968C9190E098
:100C9000B92DBF7002C095958795BA95E2F780FD92
:100CA00038C0C901842B952B2817390739F09F01CB
:100CB00022503109D9018D939C9301E0AE16BF06F5
:100CC000D1F6F701319780810E949F05CB3011F05A
:100CD0000E949D05102B2196CC30D10509F09FCFA5
:100CE000212F44E065E672E08DE592E00E948E06D9
:100CF0000E941B03812FDF91CF911F910F91FF90D5
:100D0000EF90DF90CF90BF90AF909F907F906F90CB
:100D10000895C90186239723C7CF0895FF920F93A3
:100D20001F93CF93DF93F82E092F162FD72FC42FA1
:100D3000222349F081E080938C010E948A189093CD
:100D40008B0180938A0180918C018823A1F080918E
:100D50008A0190918B010E94A218069760F0EF2DF6
:100D6000F02FA12FBD2F90E080E0D0E08C179D07E1
:100D700044F010928C01DF91CF911F910F91FF9061
:100D80000895219131912D933D930196EFCF80915C
:100D9000930180FF12C06091050185E0689FB0015A
:100DA0001124759567957595679560387105A8F557
:100DB00061157105A1F1862F089581FF09C0609129
:100DC000050185E0689FB001112475956795EDCF09
:100DD0006091050182FD0AC0809192018823D1F0C3
:100DE0009091040160910501891728F085E0689FC2
:100DF000B0011124DACF869FB001112485E0869FCF
:100E00009001879F300D1124692F70E0C9010E9465
:100E10002E21CBCF65E070E0CECF8FE7089581E043
:100E200008958091930180FF0CC06091010170E0F2
:100E300075956795759567956115710549F1862FCB
:100E4000089581FF06C06091010170E07595679576
:100E5000F3CF6091010182FD0BC090919101992324
:100E6000A1F06091000180910101961738F0682F80
:100E700070E06038710500F38FE70895899FC00125
:100E8000112470E00E942E21F4CF61E070E0D7CFF2
:100E900081E008958D3E31F40E94C70681958093CC
:100EA000970108958E3E19F40E94C706F8CF8F3E31
:100EB00031F40E94C7068195809396010895803F82
:100EC00019F40E94C706F8CF893F29F40E94110740
:100ED0008093980108958A3F21F40E94110781951B
:100EE000F7CF8B3F31F40E941107819580939901D0
:100EF00008958C3F19F40E941107F8CF9FE0980FD6
:100F0000983070F4815F990B21E030E001C0220F2E
:100F10008A95EAF780919501822B80939501089537
:100F20008D3F31F480919301816080939301089506
:100F30008E3F21F4809193018260F7CF8F3FB9F704
:100F4000809193018460F1CF409196018D3E59F4D8
:100F50008091970187FF0DC01092970141110BC03E
:100F60001092920108C08E3E81F48091970118166C
:100F70009CF3442381F08091980190919901892BF1
:100F800009F05AC01092910108958F3E49F447FF2D
:100F9000F0CF10929601809197018111ECCFE0CFB4
:100FA000803F19F41416ACF3E4CF90919801893F77
:100FB00029F41916F4F610929801DBCF8A3F19F440
:100FC00097FFD7CFF8CF909199018B3F29F497FFE6
:100FD000D0CF10929901CDCF8C3F19F41916CCF3D4
:100FE000C8CF9FE0980F983090F4815F990B21E073
:100FF00030E0B90102C0660F771F8A95E2F7CB0196
:10100000809590919501892380939501B2CF8D3F72
:1010100031F4809193018E7F80939301AACF8E3F0C
:1010200021F4809193018D7FF7CF8F3F09F0A1CFFD
:10103000809193018B7FF0CF08950E948A189C01C4
:101040009091960180919701982B21F03093900117
:1010500020938F019091980180919901982B21F014
:1010600030938E0120938D0184E991E00C94880BDC
:10107000EF92FF920F931F93CF93DF9300D000D096
:1010800000D0CDB7DEB786E0E4E9F1E0DE011196ED
:1010900001900D928A95E1F7E0909601F09097010A
:1010A0000091980110919901109296011092970168
:1010B00010929801109299018E2D8F2991F08091B4
:1010C0008F01909190010E94A218AC019091920121
:1010D000992309F43FC0809106018417150608F48E
:1010E00047C0802F812B91F080918D0190918E01CE
:1010F0000E94A218AC0190919101992309F477C044
:10110000809102018417150608F47FC08091960132
:1011100090919701892B90919801892B9091990139
:10112000892B11F00E941D0886E0FE013196A4E98A
:10113000B1E001900D928A95E1F726960FB6F894EA
:10114000DEBF0FBECDBFDF91CF911F910F91FF90FA
:10115000EF900895209107018AE0289F90011124C3
:101160002417350708F0BDCF9F5F9093920102C00E
:101170009F3FD1F7EE2059F00E94C7069FEF1E1443
:101180000CF491E0899F802D112480939601FF201B
:1011900059F00E94C7069FEF1F140CF491E0899F3D
:1011A000802D11248093970130919601332309F407
:1011B00098CF20919701222309F493CF45EB340374
:1011C000C0011124992359F09093960145EB240313
:1011D00090011124332339F03093970182CF81E0BD
:1011E00080939601F3CF81E0809397017ACF20918D
:1011F00003018AE0289F900111242417350708F085
:1012000085CF9F5F9093910102C09F3FD1F700234C
:1012100059F00E9411079FEF10160CF491E0899F7E
:10122000802D112480939801112359F00E941107F9
:101230009FEF11160CF491E0899F802D112480936B
:10124000990130919801332309F460CF20919901DD
:10125000222309F45BCF45EB3403C0011124992309
:1012600059F09093980145EB240390011124332306
:1012700039F0309399014ACF81E080939801F3CF00
:1012800081E08093990142CF86E0E4E9F1E0DF015B
:101290001D928A95E9F71092920110929101109295
:1012A000930108950F931F93CF93DF93C42FD22FF1
:1012B000FC0182818823C9F040939C010E948A1816
:1012C00090939B0180939A0180E28C0F883008F004
:1012D00050C0C77081E001C0880FCA95EAF7DF915E
:1012E000CF911F910F910C94EF0D10919C0114134D
:1012F00035C080919A0190919B010E94A218883C70
:10130000910560F5C0E2CD0F1D17B9F080E2810FA5
:10131000883040F4177081E001C0880F1A95EAF711
:101320000E94F60DC83048F481E09D2F977001C0EF
:10133000880F9A95EAF70E94EF0D802F0E94E70D23
:10134000C830B8F4D77081E001C0880FDA95EAF7A9
:10135000DF91CF911F910F910C94F60D80E28C0FCD
:10136000883038F4C77081E001C0880FCA95EAF769
:10137000EFCFDF91CF911F910F9108950F939C01B3
:10138000CB01243F4CE5340759F1A8F4293DFCE595
:101390003F0701F12A3D4CE53407D1F1283D3C459A
:1013A00091F406E221EE41EE68ED7CE50E945209DF
:1013B00080E00F910895263FFCE53F07E9F0B0F08B
:1013C000273F3C45F9F0FC018281882339F11092D6
:1013D0009C01EFCF07E225EE45EE69ED7CE5E6CF17
:1013E00006E221EE40EE64EF7CE5E0CF07E225EE79
:1013F00044EE65EF7CE5DACF06E221EE42EE66EFE1
:101400007CE5D4CF07E225EE46EE67EF7CE5CECF54
:1014100008E221E045EE6AED7CE5C8CF81E0C9CF66
:10142000CF93DF93EC01FB018281882309F419C17A
:10143000C230FCE5DF07C0F1C6319CE5D90730F0CA
:101440009E012B5F3C452930310570F50E94B31693
:101450009093720280937102C031ECE5DE0709F4CB
:10146000CFC008F05BC0C8308CE5D80709F4B6C01F
:1014700088F5C430ECE5DE0709F4A8C0C0F4C2303A
:101480008CE5D80709F49CC0809171028260C3305A
:10149000DC4509F498C080917102909172020E941B
:1014A000C1160E94681080E0DF91CF91089580916D
:1014B00071028061C630ECE5DE0709F484C08091DA
:1014C00071028860C730DC4508F47DC080917102EC
:1014D000806279C0CC308CE5D80709F489C070F4FB
:1014E000809171028C60CA30ECE5DE0709F46BC0B4
:1014F00008F478C0809171028E7F65C0CE308CE593
:10150000D80709F479C0809171028B7FCF30DC4518
:1015100008F459C0809171028F7E55C0CC3FECE534
:10152000DE0709F457C030F5C3318CE5D80709F45C
:101530006FC078F4C131ECE5DE0709F465C0C23153
:10154000DC4509F0A8CF0E946810809171028F7766
:101550003AC0C5318CE5D80709F462C008F476C0FA
:10156000809172028160CB3FDC4509F094CF80937B
:10157000720291CFC115FDE5DF0709F44DC088F473
:10158000809172028D7FCE3F9CE5D90781F38091D7
:1015900072028E7FCF3FDC4550F3809172028360F0
:1015A000E6CFC230FDE5DF0709F459C008F444C0B6
:1015B00080E0C330DD4509F06ECF0E9446176BCF47
:1015C0008091710281608093710265CF8091710278
:1015D0008460F9CF809172028260C9CF80917102DC
:1015E0008064F1CF0E946810809171028068EBCF17
:1015F000809171028D7FE7CF80917102877FE3CF69
:10160000809171028F7DDFCF809171028F7BDBCF64
:1016100080917102837FD7CF809172028C7FA7CF98
:101620008091710282FB992790F921E0922790FB2B
:1016300082F990FB83F9C7CF80917202982F909521
:1016400091708E7F892B90FB81F991CF0E94681059
:1016500090917102892F97FB87F98058B4CF81E070
:10166000ACCF81E021CFCF93DF93EB0186319C4556
:1016700011F50E94E5159A81992399F08A7A91E0F3
:1016800009F490E090939D01811109C089E20E94C4
:10169000C0150E94311680E0DF91CF91089585E357
:1016A000F6CF80919D01811104C089E20E94C71587
:1016B000F0CF85E3FBCF81E0EFCF9093A301809340
:1016C000A2010895E091A201F091A301309721F0C9
:1016D0000190F081E02D099480E00895E091A2014D
:1016E000F091A301309799F020911401222359F031
:1016F0002091710227FF07C0DC012C9111962C93D9
:10170000119725E02C930280F381E02D0994089530
:10171000E091A201F091A301309739F022E0DC01C1
:101720002C930480F581E02D099408952091A00167
:101730003091A1012817390771F09093A10180938E
:10174000A001E091A201F091A301309721F0068061
:10175000F781E02D0994089520919E0130919F0119
:101760002817390771F090939F0180939E01E091B3
:10177000A201F091A301309721F00084F185E02DC2
:10178000099408950E9496186093B1017093B20174
:101790008093B3019093B4016093AD017093AE0157
:1017A0008093AF019093B001089585B7806885BF9D
:1017B00085B7806885BF0895089508950C94DC0B63
:1017C00008950C94E00B0E94D50B84E996E10E94E9
:1017D000F9180E94DD0B0C94DE0B81E008950C9447
:1017E000ED0B089508950E9481180E94B6050E948D
:1017F00049190C94E10B8F929F92AF92BF92CF92B6
:10180000DF92EF92FF920F931F93CF93DF93CDB7A9
:10181000DEB72A970FB6F894DEBF0FBECDBF0E9489
:10182000F10B0E94F20B0E94F40581110E94C20B81
:1018300055EA852E51E0952E10E000E0A02E802F75
:101840000E948D056C01F401E190F1904F01E816C2
:10185000F90609F45CC08091390281FD0E94960569
:10186000C7018C259D25B12CEE24E394F12C9C011D
:101870002E213F21232B09F444C00E94EF0B882323
:10188000A9F0BE82AF82CE20DF2081E0CD2809F40E
:1018900080E088870E948A188160782F9A878987DC
:1018A0004E815F8168858A850E94B10C000F111FEF
:1018B000F801EB55FE4F80819181E826F926F182EF
:1018C000E0820E9438080E94620B9091A40189175F
:1018D000A9F10E94620B8093A4012A960FB6F89496
:1018E000DEBF0FBECDBFDF91CF911F910F91FF9053
:1018F000EF90DF90CF90BF90AF909F908F900C941F
:101900007003B394EE0CFF1CFCE0BF12B0CF0F5F6E
:101910001F4F0430110509F091CF8FEF89838A831F
:101920001B820E948A188160782F9D838C83498155
:101930005A816B818D810E94B10CC3CF2A960FB65C
:10194000F894DEBF0FBECDBFDF91CF911F910F91F5
:10195000FF90EF90DF90CF90BF90AF909F908F90CF
:101960000895DF92EF92FF920F931F93CF93DF932F
:10197000CDB7DEB72B970FB6F894DEBF0FBECDBF45
:101980007A878B87F42E052F162FE72ED82E61111C
:101990000E9405161E821D827E2DEC82DD824F2D57
:1019A000502F612F8D2D9E812B960FB6F894DEBFA0
:1019B0000FBECDBFDF91CF911F910F91FF90EF90A0
:1019C000DF900C94DE12FC01808191810C949215C1
:1019D000CF93C82F882309F48BC08238C1F40E94AA
:1019E000620B81FD85C089E30E94C0150E943116FB
:1019F0002FEF81EE94E0215080409040E1F700C04D
:101A0000000089E30E94C715CF910C9431168338EA
:101A1000A1F40E94620B80FD6BC083E50E94C0159B
:101A20000E9431162FEF81EE94E0215080409040CB
:101A3000E1F700C0000083E5E5CF8438A1F40E94FF
:101A4000620B82FD55C087E40E94C0150E943116CA
:101A50002FEF81EE94E0215080409040E1F700C0EC
:101A6000000087E4CFCF8CEF8C0F813A90F46C2F7D
:101A700080910801909109010E945F17882329F045
:101A80008C2F0E94C7150E9431168C2F0E94C01502
:101A9000BBCF80E28C0F883048F4C77081E001C072
:101AA000880FCA95EAF70E94E815AECFEBE5EC0F78
:101AB000E33040F4F0E0EC57FE4F808190E0CF91AE
:101AC0000C94960BE8E5EC0FE73150F4F0E0EE0FE4
:101AD000FF1FEA5AFE4F80819181CF910C94AC0B8D
:101AE000CD3E30F08C2F0E944A07CF910C941D08F8
:101AF000CF910895882309F452C0823871F40E946E
:101B0000620B81FF4CC089E30E94C0150E94311610
:101B100089E30E94C7150C943116833859F40E944A
:101B2000620B80FF3CC083E50E94C0150E94311605
:101B300083E5EFCF843859F40E94620B82FF2FC0F7
:101B400087E40E94C0150E94311687E4E2CF9CEF23
:101B5000980F913AF0F290E2980F983050F4877015
:101B600091E001C0990F8A95EAF7892F0E94EE153E
:101B7000D2CF9BE5980F933020F490E080E00C9456
:101B8000960B98E5980F973120F490E080E00C9444
:101B9000AC0B8D3E20F00E94A4070C941D08089504
:101BA0001F93CF93DF93182FEB010E94E80C20972F
:101BB00031F4812FDF91CF911F910C947A0D8FE931
:101BC0009FE00197F1F700C000002197F0CF70E08F
:101BD00060E0893311F460E570E00C94D00D882347
:101BE00021F00E94E8150C9431160895882321F005
:101BF0000E94EE150C9431160895BF92CF92DF9299
:101C0000EF92FF920F931F93CF93DF936C01D62F28
:101C1000C72FFC011281058102950F700E94DE150D
:101C2000E82E8823A1F0E12E112389F08C2F807FEC
:101C3000803429F080E28D0FE12C883040F082E082
:101C40000E947C160E94DE1591E0E82EE926BC2E4B
:101C5000B2949FE0B922EB2DF0E0E056FE4D0C94DB
:101C600042210C2F0F70C07F11F00295007F1123CD
:101C7000A9F0002359F080E28D0F883010F0D111C7
:101C800009C0802F0E94E8150E9431168D2F0E94F6
:101C9000E80C14C0802F0E94F815F6CF8D2F0E94FB
:101CA0007A0D002359F080E28D0F883010F0D111A9
:101CB0002CC0802F0E94EE150E9431162B2D28502B
:101CC000330B2430310520F40E94620B0E94700314
:101CD000EE2009F49EC10E94DA1580FD9AC1F6013A
:101CE00012820E94D4150E946014C6010E942A101C
:101CF0000E94D415DF91CF911F910F91FF90EF902B
:101D0000DF90CF90BF900C948114802F0E94FE151D
:101D1000D3CFFC2FFF70FF2EC07FC03219F0F2949A
:101D200080EFF822DD2369F0D13049F1112391F1E0
:101D3000002351F1F601858180FFA8CF8F70858344
:101D400023C0112381F0011106C00E9418168F29AB
:101D50000E94EF0DB3CF0130C1F70E9418168F29F2
:101D60000E941E16ABCF011106C00E9427168F2DB0
:101D70000E94F60DA3CF013009F4A0CFF6CF1123B6
:101D800029F0063008F09ACF8F2DE2CF053008F009
:101D900095CFEDCF002359F3D93349F4FFEF27EE68
:101DA00033E0F15020403040E1F700C000008D2FBB
:101DB0000E947A0D83CF8C2F86958695837069F06B
:101DC000813009F07BCF8D2F9C2F9370111102C0B1
:101DD00090E080E00E94AC0B71CF8D2F9C2F937010
:101DE000111102C090E080E00E94960B67CF8D2F0A
:101DF000112329F00E944A070E941D085FCF0E940C
:101E0000A407FACF8C2F837009F041C0111156CF6F
:101E10004D2F429546954770440F440F0D2F0F707C
:101E200010E030E020E0042E04C0000F111F221F3C
:101E3000331F0A94D2F760E070E0CB01D4FF0FC0EB
:101E40006FE070E080E090E004C0660F771F881FAD
:101E5000991F4A95D2F76095709580959095C69593
:101E6000C695C370602B712B822B932BC23049F027
:101E700058F4C13019F00E94141420CF0E940214AB
:101E80001DCF0E9426141ACF0E94001417CF8695EA
:101E9000112311F08C2F8170882309F40FCF4D2F5F
:101EA000429546954770440F440F0D2F0F7010E078
:101EB00030E020E0042E04C0000F111F221F331F4A
:101EC0000A94D2F760E070E0CB01D4FF0FC06FE05E
:101ED00070E080E090E004C0660F771F881F991FB4
:101EE0004A95D2F76095709580959095C695C69560
:101EF000C370602B712B822B932BC23049F058F4A6
:101F0000C13019F00E94D714D9CE0E94C514D6CE84
:101F10000E94E914D3CE0E943A14D0CECF70112380
:101F200029F08C2F0E9460148D2F12CF8D2F0E94CC
:101F3000F60D8C2F0E948114C1CED23F89F160F43E
:101F4000D03FC9F0D13F29F1112309F442C001115A
:101F50009DCE8C2F8F7121C0D33F39F1D43FA1F793
:101F6000112369F1CF718C2F0E94601463E08C2FD4
:101F70000E946716A3CE112341F0053008F09ECED3
:101F80008C2F8F710E94A41499CE063008F096CE43
:101F9000F7CF8C2F8F71112369F20E9460148ECEBF
:101FA0008C2F8F711123C9F3C5CF112329F08C2FEA
:101FB0008F710E944B1482CE0E9446147FCE81E026
:101FC0000E947C16023008F479CE82E00E947C16D2
:101FD00075CE002359F0D93309F0E9CE8FEF97EE93
:101FE000E3E081509040E040E1F7DFCE8C2F8F712D
:101FF000A1CF4C2F4F706D2FC6010E9478030E9415
:1020000078135CCE4C2F4F706D2FC6010E947B035E
:1020100055CEDF91CF911F910F91FF90EF90DF9000
:10202000CF90BF9008950F931F93CF93DF93EC0150
:10203000688179818A810E949C158C010E94FB1421
:102040000E94FF13B801CE01DF91CF911F910F9134
:102050000C94FD0DCF93DF93EC018B819C81892B38
:1020600029F08881998189238F3F59F4DF91CF919D
:102070000895CE010E941310CE01DF91CF910C94F0
:10208000A102CE010E942D038111F3CF0E94DE1523
:10209000882361F38A81882349F382E0DF91CF911D
:1020A0000C947C1690E080E00E94960B90E080E01B
:1020B0000E94AC0B0E9405160E9415160E94311654
:1020C0000E9444090C941D080E94CE150C945210D5
:1020D0000E94F5150C946410E92FE295EF70E25020
:1020E000EE3070F4F0E0E055FE4D0C944221803F5C
:1020F00019F020F4883E20F481E00895843FE1F354
:1021000080E00895883EC0F3813FD1F7F5CF93FB7F
:10211000882780F908950E9492150C946C10CF9333
:10212000DF9300D000D00F92CDB7DEB70F900F90A5
:102130000F900F900F90DF91CF910895CF93DF9381
:1021400000D000D000D0CDB7DEB726960FB6F894F9
:10215000DEBF0FBECDBFDF91CF9108951F93CF9308
:10216000DF93C091B60116E08091B7018C1304C0D3
:10217000DF91CF911F910895D0E01C9FF0011D9F2A
:10218000F00D1124E854FE4F40815181628173812A
:10219000848195810E949E102196C770E5CF409161
:1021A000E8015091E9016091EA017091EB018091A1
:1021B000EC019091ED010C949E101F93CF93DF934F
:1021C0008091ED01807FA9F48091EA01882389F054
:1021D0008091B601C091B7016091E8017091E90169
:1021E000A091EB01B091EC01D62FD72316E0C813D4
:1021F00004C0DF91CF911F91089590E0109711F0E6
:10220000DF3F19F401968770F2CF189F9001199F54
:10221000300D1124F901E854FE4F41814713F2CFEC
:1022200040814613EFCF42814111ECCF438154816D
:102230004A1B5B0B483C510528F78091ED018F70DC
:1022400080618093ED01F901E354FE4F80818F702E
:102250008061808388EE91E00E942A10DF91CF9107
:102260001F910C94AE10AF92BF92CF92DF92EF927B
:10227000FF920F931F93CF93DF93CDB7DEB7619794
:102280000FB6F894DEBF0FBECDBF8C0185E0F8011C
:10229000DE011D9601900D928A95E1F7F8014081CB
:1022A0005181E28088EEC82E81E0D82E6091EB014A
:1022B0007091EC016115710509F461C19091E8011B
:1022C0002091E901892F82238F3F09F458C1A3800F
:1022D000B480F090EA01F501E61BF70BFF2009F44A
:1022E000FCC08091ED01382F307FE83CF10508F00B
:1022F000B2C0311179C0FE2C251323C0941321C024
:10230000E1101FC08F7080618093ED010E94CF109B
:10231000C6010E942A108091ED01F80185838F2D5E
:1023200061960FB6F894DEBF0FBECDBFDF91CF919F
:102330001F910F91FF90EF90DF90CF90BF90AF90E3
:102340000895AB2829F0842F85238F3F09F033C1EE
:1023500080E0F82FF170DF2E80FF3CC08091B60145
:102360002091B70136E0821315C04D875E878D85B9
:102370009E850E949215292F22952F702230F0F011
:10238000243018F59F70F1F0F8019581907FD1F419
:10239000D12C1EC090E0389FF001399FF00D112420
:1023A000E854FE4F6181651306C06081641303C069
:1023B00062816E110FC001968770D5CF9F7011F0AA
:1023C000882331F3805E883018F3C8010E942A10F8
:1023D000FD2CA5CFEE2009F4A2CF8091ED01816004
:1023E0008093ED01F12C9BCF251306C0941304C0FC
:1023F000F801EE2009F48DC04D875E878D859E859E
:102400000E948B10882319F1EE2009F18091ED01D3
:10241000803270F02091E8013091E90138872F83F4
:102420001986BB86AA868C87CE0107960E942A1041
:1024300086E0F801A8EEB1E001900D928A95E1F7EF
:102440000E94DD100E94CF10FF24F39468CFC801D2
:102450000E942A10F9CF311113C07A2DB98AA88AA7
:102460006E2D89890E948F1088EE91E00E942A10BB
:1024700086E0F60111928A95E9F70E94CF10B2CF5B
:1024800025130FC094130DC0E1100BC0F801858314
:10249000C8010E942A1086E0F60111928A95E9F798
:1024A0003ECF4D875E878D859E850E948B10882349
:1024B00071F2EE2061F28091ED01803208F4B8CF24
:1024C0002091E8013091E9013A8329831B82BD8282
:1024D000AC828E83CE010196A9CFE83CF10508F0CD
:1024E00041C0FE2CEE2009F4B2CF25132AC094136C
:1024F00028C08091ED0180FD1BC0982F907FC1F016
:10250000F8018583903F31F0982F907F905F8F7016
:10251000892B8583C8010E942A1086E0F801A8EE65
:10252000B1E001900D928A95E1F70E94CF10F7CEAD
:1025300086E0F801A8EEB1E001900D928A95E1F7EE
:10254000EECE4D875E878D859E850E948B10811112
:102550006FCF8091ED0181608093ED01C8010E94F1
:102560002A10DDCE7A2DB98AA88A6E2D89890E941B
:102570008F1086E0F60111928A95E9F7D6CFEE200A
:1025800009F465CF4D875E878D859E850E948B10EF
:10259000F82E882309F45BCF86E0F801A8EEB1E0BD
:1025A00001900D928A95E1F788EE91E00E94E30C8C
:1025B0000E94DD10BACF81E08E25CBCE1F93CF9342
:1025C000DF93CDB7DEB72C970FB6F894DEBF0FBE02
:1025D000CDBF4F83588769877A878B879C87CE01C9
:1025E00007960E943311882369F08A859B85892B81
:1025F00039F04F815885842F85238F3F09F071C0B2
:1026000016E05FC086E0FE013796DE01119601906C
:102610000D928A95E1F78A859B85892B89F38F81B5
:10262000988589238F3F61F32091B70130E0C9017C
:102630000196877099274091B6014817190671F4E1
:102640000E9468101092B7011092B60186E0E8EE81
:10265000F1E0DF011D928A95E9F7D2CF96E0929FD3
:10266000D001939FB00D1124A854BE4FFE013196A6
:1026700001900D929A95E1F78093B7010E94AE10F8
:10268000BFCF819FC001112488549E4F0E943311F7
:102690008823E9F0E091B6011E9FF0011124E8546F
:1026A000FE4F4081518162817381848195810E94B6
:1026B0009E108091B60190E00196877099278093D3
:1026C000B6018091B6019091B7018913DACF2C96AB
:1026D0000FB6F894DEBF0FBECDBFDF91CF911F9133
:1026E000089569857A858B859C850E949E1088CF88
:1026F000EF92FF920F931F93CF93DF938C01892B5F
:1027000081F0F12CEE24E394E8012196F801849104
:10271000843770F4843008F05FC08130B1F08230CB
:10272000A1F1DF91CF911F910F91FF90EF9008954C
:10273000853709F44CC008F43DC09CE7980F9037EA
:1027400080F78F770E947A0D49C00E5F1F4FFE0100
:10275000849190E2980F983060F48770FE2D01C04C
:10276000FF0F8A95EAF78F2F0E9408160E943116F4
:1027700002C00E94E80C8F2D815030F2EFE9FFE09B
:102780003197F1F700C00000F7CF0E5F1F4FFE0139
:10279000849190E2980F983050F48770FE2D01C01C
:1027A000FF0F8A95EAF78F2F0E940E16DFCF0E9447
:1027B0007A0DE1CF0E5F1F4FFE01C491C150D8F2D8
:1027C0008FE99FE00197F1F700C00000F7CF0E5F9F
:1027D0001F4FFE01F490CFCF0E94E80C8E01CBCFAB
:1027E00008950C94F0130E94F113609310027093FB
:1027F000110280931202909313020C9452100895C8
:102800000C94F3130F931F93009110021091110277
:102810002091120230911302602B712B822B932B8B
:102820001F910F910C94F3130F931F9300911002BB
:102830001091110220911202309113026023712332
:10284000822393231F910F910C94F3130F931F93E3
:102850000091100210911102209112023091130286
:1028600060277127822793271F910F910C94F313F0
:102870000C9448020E94381460930C0270930D026D
:1028800080930E0290930F020C94521060E070E05F
:10289000CB010C943A140F931F9341E050E060E099
:1028A00070E08A019B0104C0000F111F221F331F1B
:1028B0008A95D2F7C901B8011F910F910C943A146F
:1028C0000F931F9341E050E060E070E004C0440FBC
:1028D000551F661F771F8A95D2F780910C02909141
:1028E0000D02A0910E02B0910F028A019B01082BEC
:1028F000192B2A2B3B2BC901B8011F910F910C9466
:102900003A140F931F9341E050E060E070E004C080
:10291000440F551F661F771F8A95D2F7CB01BA0166
:10292000609570958095909500910C0210910D0224
:1029300020910E0230910F02602371238223932392
:102940001F910F910C943A140F931F9341E050E0A4
:1029500060E070E004C0440F551F661F771F8A9522
:10296000D2F780910C0290910D02A0910E02B091CD
:102970000F028A019B01082719272A273B27C90133
:10298000B8011F910F910C943A140F931F9300916B
:102990000C0210910D0220910E0230910F02602B5B
:1029A000712B822B932B1F910F910C943A140F9340
:1029B0001F9300910C0210910D0220910E02309194
:1029C0000F0260237123822393231F910F910C9494
:1029D0003A140F931F9300910C0210910D02209155
:1029E0000E0230910F0260277127822793271F91D3
:1029F0000F910C943A1408952CE0929F800D1124AD
:102A0000982F977041E001C0440F9A95EAF7869598
:102A10008695869595E0899FF0011124E251FE4F3D
:102A200090E080E070E05191DF0111979B01082E4A
:102A300002C0369527950A94E2F721702195252743
:102A4000242325272C9301968530910561F708955D
:102A50002CE0929F800D1124982F97708695869573
:102A6000869525E0829FF0011124E251FE4F50E04F
:102A700040E080E0219130E0092E02C03695279594
:102A80000A94E2F721703327042E01C0220F0A9422
:102A9000EAF7822B4F5F5F4F4530510559F7089594
:102AA000BF92CF92DF92EF92FF920F931F93CF933B
:102AB000DF938C01C0900C02D0900D02E0900E02CA
:102AC000F0900F028091100290911102A0911202D9
:102AD000B0911302C82AD92AEA2AFB2ACFE1D0E012
:102AE000BC2ED701C6010C2E04C0B695A7959795AC
:102AF00087950A94D2F780FD0EC0219788F7B12CF4
:102B00008B2DDF91CF911F910F91FF90EF90DF9070
:102B1000CF90BF900895B8018C2F0E949803019721
:102B200061F3EECFCF93DF93EC010E945015BE010D
:102B3000DF91CF910C9498031F93CF93DF93EB0118
:102B40009091B501992331F0CB01DF91CF911F9185
:102B50000C949215882379F0CB010E945015182F00
:102B6000682FCE010E94FC14BE01812FDF91CF910E
:102B70001F910C949803CB010E942815182FF4CFB5
:102B8000682F80910801909109010C94DF17682F3C
:102B900080910801909109010C94EA178091080135
:102BA000909109010C94F5178091140285958595F3
:102BB000859508958091140287700895909114026C
:102BC000977081E009F480E00895809138020895BB
:102BD00090913802892B80933802089580959091C6
:102BE000380298239093380208951092380208957D
:102BF00090913702892B80933702089580959091A8
:102C0000370298239093370208951092370208955F
:102C100090913602892B8093360208958095909189
:102C20003602982390933602089510923602089542
:102C300080911502089508950C941B169091150229
:102C4000981721F0809315020C941C16089580911A
:102C50001502882329F01092150280E00C941C16AE
:102C60000895E0910801F091090180913802808374
:102C7000E0910801F0910901808190913702892B40
:102C80008083E0910801F0910901808190913602E2
:102C9000892B808390911502992381F0E09108019E
:102CA000F09109018081892B8083809108019091A6
:102CB00009010E944B1781110E942716809108017B
:102CC000909109010C946E0B08950C94641698E091
:102CD000899F90011124622B609314020E9460145A
:102CE000809114028595859585950C9465161092B2
:102CF000140280E00C94651690911402809589234B
:102D000080931402282F277071F4282F082E000CAE
:102D1000330B9217130639F08595859585950E949A
:102D200081140C947716089580E0089590E080E077
:102D30000E94642121E08B3E9E4F09F020E0822F0B
:102D4000089582E090E00C945C21682F82E090E08E
:102D50000C946A2183E090E00C945C21682F83E05E
:102D600090E00C946A21CF9384E090E00E945C2173
:102D7000C82F81E290E00E945C21982F8C2FCF9188
:102D80000895CF93C92F682F84E090E00E946A21B4
:102D90006C2F81E290E0CF910C946A21AB01BC01D1
:102DA0008FE090E00C947C21AB01BC0183E190E0CA
:102DB0000C947C2160E070E0CB010C94D41660E0B0
:102DC00070E0CB010E94CE160C94DA166BEE7EEF0B
:102DD00090E080E00E94882160E082E090E00E9424
:102DE0006A2160E083E090E00E946A211092100264
:102DF00010921102109212021092130260E084E00D
:102E000090E00E946A2160E081E290E00E946A21E5
:102E100060E085E090E00E946A2160E086E090E05A
:102E20000E946A216FEF87E090E00E946A2140E0F3
:102E300050E0BA0188E090E00E947C2160E08DE0E3
:102E400090E00E946A2140E050E0BA0188E190E001
:102E50000E947C2160E087E190E00E946A2140E0CE
:102E600050E0BA018CE190E00E947C2160E080E2B9
:102E700090E00E946A2140E050E0BA0188E190E0D1
:102E80000E947C210C94DF160C94E616682F8EE0CD
:102E900090E00C946A21FC01329680911401882301
:102EA00021F0809171029EE187FF96E080E09150D1
:102EB00008F4089521912223D1F38F5FF8CF662380
:102EC00001F1209114012223F1F02091710227FFDA
:102ED0001AC0462F4695469546954E3190F4677038
:102EE00021E030E002C0220F331F6A95E2F7840F21
:102EF000911DFC01828190E02823392381E0232B5E
:102F000069F480E00895FC01329608962191261715
:102F100021F0E817F907D1F7F4CF81E008959C017B
:102F2000FC0132969FEF80E04191461751F09F3FA0
:102F300019F4411101C0982F8F5F8630A9F79F3F88
:102F400009F40895290F311D97FD3A95F90162831F
:102F50000895FC01329608962191261303C0DF01E3
:102F600011971C92E817F907B9F70895E62FE6952F
:102F7000E695E695EE3168F4E80FF92FF11D6770DC
:102F800021E030E001C0220F6A95EAF78281822BAE
:102F900082830895E62FE695E695E695EE3170F486
:102FA000E80FF92FF11D677021E030E001C0220F1A
:102FB0006A95EAF72095828128232283089520913B
:102FC0001401222329F02091710227FD0C94B617D9
:102FD0000C948F1720911401222329F02091710263
:102FE00027FD0C94CA170C94A917FC013296809106
:102FF0001401882351F08091710287FF06C08EE191
:10300000DF011D928A95E9F7089586E0F9CF0895CA
:1030100008950C94081880917702843049F10E9439
:10302000091880E00E94700310923A0288E190E053
:1030300020E40FB6F894A895809360000FBE20930B
:10304000600083B7817F846083BF83B7816083BF63
:103050007894889583B78E7F83BF0FB6F894A89530
:1030600080916000886180936000109260000FBEC4
:1030700008950895CF930E9407180E94F4050E94B6
:103080003918C0E08C2F0E948D05892B31F4CF5F59
:10309000C430C1F780E0CF91089581E0FCCF08955E
:1030A0000C944F180E9468100E94620B0E947003DB
:1030B0000C9450181F921FB61F9211248F939F9348
:1030C000AF93BF9380913A02811113C080916D023A
:1030D00090916E02A0916F02B09170024196A11D75
:1030E000B11D80936D0290936E02A0936F02B09316
:1030F0007002BF91AF919F918F911F901FBE1F9043
:10310000189582E084BD93E095BD9AEF97BD8093BA
:103110006E0008952FB7F89480916D0290916E0221
:10312000A0916F02B09170022FBF08952FB7F8944D
:1031300060916D0270916E0280916F0290917002A9
:103140002FBF08959C014FB7F89480916D02909124
:103150006E02A0916F02B09170024FBF821B930B61
:10316000089578941F921FB61F9211248F939F93F6
:10317000AF93BF9380916D0290916E02A0916F0208
:10318000B09170020196A11DB11D80936D029093C4
:103190006E02A0936F02B0937002BF91AF919F91A6
:1031A0008F911F901FBE1F90189581E08093E000C3
:1031B00080E28093D8001092C9008FE19EE40197CD
:1031C000F1F700C0000087E090EBDC018093800203
:1031D00090938102A0938202B093830288E19CE0E5
:1031E0000FB6F894A895809360000FBE909360008E
:1031F000FFCF90938901809388010895AF92BF9289
:10320000CF92DF92EF92FF920F931F93CF93C0E084
:10321000CC24C394D12CE82EF12C8C2F0E948D0548
:103220005C0110E000E0C601002E02C0880F991F6B
:103230000A94E2F78A219B21892B99F40F5F1F4F93
:103240000C30110581F7CF5FC43039F780E0CF91A2
:103250001F910F91FF90EF90DF90CF90BF90AF90B4
:103260000895602F7C2F80E00E947C03E816F90609
:1032700029F781E0ECCFCF93C82F8CE20E94FE1893
:10328000882321F08C2FCF910C94FE1880E0CF91F1
:103290000895CF930E949616811102C00E94441790
:1032A000C5E608C00E94F4058FE39CE90197F1F799
:1032B00000C00000C150B1F789E20E943B198111A2
:1032C0000BC18AE20E943B1981110E94441785E0DC
:1032D0000E943B1981110E94D5180E94A11680936B
:1032E000390287E00E943B19882371F08BE10E942C
:1032F0003B19882309F4CDC090913902892F8D7F25
:1033000091FF826080933902809139020E94A51654
:103310000E94B316909372028093710280EE0E9415
:103320003B19882341F090917102892F8E7F90FF85
:1033300081608093710289E30E943B19882341F0E8
:1033400090917102892F8D7F91FF8260809371022D
:1033500082EE0E943B19882341F090917102892FDF
:103360008B7F92FF84608093710286EE0E943B19EE
:10337000882341F090917102892F877F93FF8860A5
:103380008093710283EE0E943B19882341F0909153
:103390007102892F8F7E94FF80618093710285E393
:1033A0000E943B19882341F090917102892F8F7DF3
:1033B00095FF80628093710281E30E943B1988230C
:1033C00041F090917102892F8F7B96FF80648093EA
:1033D000710281E10E943B19882341F090917102B2
:1033E000892F97FB87F98058809371028091710231
:1033F000909172020E94C11687E20E943B19C82F69
:103400008EE10E943B198111C2608FE10E943B193D
:103410008111C46080E20E943B198111C86081E281
:103420000E943B198111C06182E20E943B19811107
:10343000C06283E20E943B198111C06484E20E9451
:103440003B19882309F442C0C0688C2F0E94AE1635
:103450006C2F70E090E080E00E94001460910C02FC
:1034600070910D0280910E0290910F020E9438140B
:103470008FE00E943B19882319F081E00E944617D3
:1034800085E10E943B19882339F180E0CF910C94AB
:1034900046178EE00E943B19882339F0909139023B
:1034A000892F8B7F92FF84602DCF80E10E943B1992
:1034B00090913902882329F0892F877F93FF8860B4
:1034C00021CF892F8E7F90FF81601CCFC111BDCF8E
:1034D0000E94AA16682FBDCFCF91089580915B02FC
:1034E0000895CF93DF9300D00F92CDB7DEB79091C0
:1034F0007702943019F589837B836A8382E0809315
:10350000E9008FEF9091E800815095FD06C095EDA0
:103510009A95F1F700008111F5CF8091E80085FFC1
:103520000DC050E040E063E070E0CE0101960E94E3
:103530009D1C8091E8008E778093E8000F900F909B
:103540000F90DF91CF910895BC0184E00C94711A23
:10355000BC0183E00C94711A9C0182E08093E90025
:103560009FEF8091E800915085FD06C085ED8A951A
:10357000F1F700009111F5CF8091E80085FF0CC0B4
:1035800050E040E066E070E0C9010E949D1C80911F
:10359000E8008E778093E8000895CF93DF93EC01E5
:1035A000809114018823B1F18091710287FF32C0AC
:1035B00060E282E08093E9008FEF9091E800815013
:1035C00095FD06C095ED9A95F1F700008111F5CFB4
:1035D0008091E80085FF1BC08091140170E050E0ED
:1035E00040E0811104C050E040E068E070E0CE01AE
:1035F0000E949D1C8091E8008E778093E80080E215
:10360000FE01ABE3B2E001900D928A95E1F7DF9104
:10361000CF91089568E081E0CDCF8091760281114D
:1036200009C00E942D1E0E948A1E8091E2008460C3
:103630008093E20008951092760208950895089507
:10364000089542E061EC81E00E94A91D42E261EC34
:1036500082E00C94A91D80917902833009F45FC047
:1036600030F48130C1F1823009F49BC008958A3072
:1036700009F487C08B3009F46DC0893009F04EC061
:1036800080917802813209F049C080917C0290914A
:103690007D02029708F042C08091E800877F809306
:1036A000E8008091E80082FF35C09091F30080919E
:1036B000F200029729F48091F1008B7F813021F490
:1036C0008091F10080935B028091E8008B7780937A
:1036D000E8000C94DD1D80917802813AF9F4809124
:1036E000E800877F8093E80080917C0290917D02C2
:1036F000892B61F460E28BE392E070E00E94EC1CA5
:103700008091E8008B778093E800089560E090E076
:1037100080E0F3CF809177028111C3CF089580912B
:103720007802813AD9F780917C0290917D02892BB1
:10373000A9F78091E800877F8093E8008091E800F6
:1037400080FFFCCF809114018093F1008091E8000C
:103750008E77BDCF80917802813201F780917C0213
:1037600090917D02892BD1F68091E800877F80932C
:10377000E8000E94DD1D80917A02809314010C9470
:10378000681080917802813249F68091E800877F45
:103790008093E8000E94DD1D80917B0280935C0293
:1037A000089580917802813A09F0B8CF8091E800BD
:1037B000877F8093E8008091E80080FFFCCF8091B4
:1037C0005C02C2CF84B7877F84BF0FB6F894A895F8
:1037D00080916000886180936000109260000FBE4D
:1037E00080E890E00FB6F8948093610090936100B8
:1037F0000FBE0E94E30B0E942D1E0E948A1E809124
:10380000E20084608093E20078940E9413210E9479
:10381000F30B8AE091E00E945D0B80917702853086
:10382000A9F00E94FB0B0E94F10B0E94F20BF5CF56
:103830000E940B1880917502882341F00E943A186B
:10384000882321F00E94871C0E94681080917702D3
:10385000853071F30E945218E4CF0C942F1C292F4D
:1038600033272330310519F168F42130310509F48B
:1038700044C02230310509F445C090E080E030E0DA
:1038800020E025C02132310549F122323105A9F766
:1038900080E490E02DEB33E061157105C1F086EB1B
:1038A00090E027E033E06130710589F0E6CF992799
:1038B0008130910581F0009729F00297F1F6ECE84C
:1038C000F2E002C0E6EBF2E0849190E09F01FA01A1
:1038D000318320830895E8EAF2E0F6CF89E090E0B2
:1038E0002CEC32E06115710591F389E090E025EE52
:1038F00032E06130710559F3C0CF82E190E025EFED
:1039000032E0E5CF8BE390E02AEB32E0E0CF80E1DC
:1039100089BD82E189BD09B400FEFDCF8091D80048
:103920008F7D8093D8008091E00082608093E000DA
:103930008091E00081FDFCCF0895AF92BF92CF92BD
:10394000DF92FF920F931F93CF93DF936C01EB01F4
:103950008A010E94FC1DF82E811123C0011511055A
:1039600039F0F80180819181C81BD90BC80ED91E8E
:10397000B12CA12C2097A9F08091E80085FD22C0F0
:103980008091E8008E778093E80001151105A1F081
:10399000F80180819181A80EB91EB182A08285E0D4
:1039A000F82E8F2DDF91CF911F910F91FF90DF9017
:1039B000CF90BF90AF9008950E94FC1D8823D1F254
:1039C000F82EEFCFF60181916F018093F1002197DE
:1039D000FFEFAF1ABF0ACECFFC0180917E0290911B
:1039E0007F0286179707A0F06115710529F4909161
:1039F000E8009E779093E80090E06115710551F41E
:103A0000911108C08091E80082FF34C080E00895E1
:103A1000BC01F2CF809177028823C1F18530C1F1DA
:103A20008091E80083FD30C08091E80082FDEACFFC
:103A30008091E80080FFE1CF8091F3002091F200B7
:103A4000382F6115710519F02830310558F091E0D3
:103A50002830310509F090E02091E8002E7720937E
:103A6000E800CBCF81918093F100615071092F5F05
:103A70003F4FE7CF80917702882341F0853041F0B6
:103A80008091E80083FFBECF81E0089582E0089531
:103A900083E00895FC0180917E0290917F02861759
:103AA0009707A0F06115710529F48091E8008E77E1
:103AB0008093E80090E06115710551F4911108C000
:103AC0008091E80082FF35C080E00895BC01F2CF0C
:103AD000809177028823C9F18530C9F18091E8008F
:103AE00083FD31C08091E80082FDEACF8091E8003B
:103AF00080FFE1CF8091F3002091F200382F611513
:103B0000710519F02830310558F091E02830310561
:103B100009F090E08091E8008E778093E800CBCFA9
:103B200084918093F1003196615071092F5F3F4F6E
:103B3000E6CF80917702882341F0853041F0809173
:103B4000E80083FFBDCF81E0089582E0089583E01F
:103B50000895982F973028F08F708093E90081E0C6
:103B600008959093E900242F762F50E0981731F0B4
:103B70007091EC002091ED005091F00021FD02C009
:103B80009F5FE8CF3091EB003E7F3093EB003091A8
:103B9000ED003D7F3093ED003091EB0031603093CC
:103BA000EB007093EC002093ED005093F000209117
:103BB000EE0027FDE5CF80E008958091780287FF31
:103BC00013C08091E80082FF06C08091E8008B77E7
:103BD0008093E80004C0809177028111F2CF0895AC
:103BE000809177028823D9F38091E80080FFF8CF95
:103BF0008091E8008E77ECCF2091E4003091E500D1
:103C000095E6A9012091EC00822F817020FF06C06B
:103C10008091E80080FF06C080E008952091E800D0
:103C200022FD1AC080917702882389F0853089F0BF
:103C30008091EB0085FD0FC02091E4003091E500FC
:103C400042175307F9F29150E1F684E0089582E0BB
:103C5000089583E0089581E008950E949B1E0E94CC
:103C6000A31EE0EEF0E0808181608083E8EDF0E06B
:103C700080818F77808319BCA7EDB0E08C918E7F17
:103C80008C9380818F7E80831092760208950F93AB
:103C90001F93CF93DF930E949B1E0E94A31EC8ED2B
:103CA000D0E088818F778883888180688883888145
:103CB0008F7D888319BC1092770210927302109244
:103CC00075021092740200EE10E0F80180818B7F83
:103CD000808388818160888342E060E080E00E9488
:103CE000A91DE1EEF0E080818E7F8083E2EEF0E0BE
:103CF000808181608083808188608083F8018081F9
:103D00008E7F8083888180618883DF91CF911F912E
:103D10000F910895E8EDF0E080818F7E8083E7EDDC
:103D2000F0E080818160808384E082BF81E08093C5
:103D300076020C94471EE8EDF0E080818E7F808350
:103D40001092E20008951092DA001092E1000895B6
:103D50001F920F920FB60F9211242F933F934F9300
:103D60005F936F937F938F939F93AF93BF93EF93E3
:103D7000FF938091E10082FF0BC08091E20082FFFF
:103D800007C08091E1008B7F8093E1000E941221A7
:103D90008091DA0080FF19C08091D80080FF15C0A3
:103DA0008091DA008E7F8093DA008091D90080FFC5
:103DB00096C080E189BD82E189BD09B400FEFDCFD6
:103DC00081E0809377020E940D1B8091E10080FFCB
:103DD00019C08091E20080FF15C08091E2008E7FC3
:103DE0008093E2008091E20080618093E200809104
:103DF000D80080628093D80019BC85E08093770258
:103E00000E941F1B8091E10084FF2BC08091E20083
:103E100084FF27C080E189BD82E189BD89B5982FE3
:103E2000917080FFFBCF8091D8008F7D8093D80068
:103E30008091E1008F7E8093E1008091E2008F7E8F
:103E40008093E2008091E20081608093E2008091A3
:103E50007302882309F449C084E0809377020E94AA
:103E6000201B8091E10083FF29C08091E20083FF45
:103E700025C08091E100877F8093E10082E08093FC
:103E80007702109273028091E1008E7F8093E100AF
:103E90008091E2008E7F8093E2008091E200806159
:103EA0008093E20042E060E080E00E94A91D8091E2
:103EB000F00088608093F0000E941E1BFF91EF913C
:103EC000BF91AF919F918F917F916F915F914F9132
:103ED0003F912F910F900FBE0F901F90189519BC16
:103EE000109277020E941B1B70CF8091E30087FD28
:103EF00093E090937702B3CF1F920F920FB60F9279
:103F000011242F933F934F935F936F937F938F93DE
:103F10009F93AF93BF93CF93DF93EF93FF93D09192
:103F2000E900DF708091EC00C82FC17080FDC0E80F
:103F30001092E9008091F000877F8093F0007894E0
:103F40000E94C01F1092E9008091F0008860809369
:103F5000F000CD2BCF70C093E900FF91EF91DF917E
:103F6000CF91BF91AF919F918F917F916F915F9111
:103F70004F913F912F910F900FBE0F901F9018956A
:103F80001F93CF93DF93CDB7DEB7AA970FB6F89400
:103F9000DEBF0FBECDBF88E792E02091F100FC01AB
:103FA0002193CF01F2E080389F07B9F70E942B1BC5
:103FB0008091E80083FF1EC1809178029091790280
:103FC0009A3008F017C1E92FF0E0E254FE4D0C944E
:103FD0004221803899F0823809F00CC180917C022E
:103FE0008F70873008F006C18093E9008091EB0064
:103FF00085FB882780F91092E90006C08091740241
:1040000090917502911182609091E800977F909352
:10401000E8008093F1001092F1008091E8008E7723
:10402000E5C0882309F4D3C0823009F0E3C0809151
:104030007A028111D6C080917C028F702FEF280FF9
:10404000263008F0D7C08093E9002091EB0020FFD4
:10405000C8C0933031F48091EB0080628093EB0014
:10406000C0C09091EB0090619093EB0021E030E0B4
:1040700001C0220F8A95EAF72093EA001092EA0025
:104080008091EB008860EACF8111B4C010917A0270
:104090001F778091E3008078812B8093E3008091EB
:1040A000E800877F8093E8000E94DD1D8091E80092
:1040B00080FFFCCF8091E30080688093E30082E082
:1040C000111183E08093770295C08058823008F008
:1040D00091C080917A0290917B028C3D23E09207FF
:1040E000A1F583E08A838AE289834FB7F894DE01E1
:1040F000139620E03EE051E2E32FF0E050935700AA
:10410000E49120FF03C0E295EF703F5FEF708E2FC8
:1041100090E0EA30C0F0C7968D939D932F5F2431D5
:1041200059F74FBF8091E800877F8093E8006AE2EB
:1041300070E0CE0101960E94EC1C8091E8008B7724
:104140008093E80057C0C096E7CF60917C027091E1
:104150007D02AE014F5F5F4F0E942D1CBC01892B79
:1041600009F448C09091E800977F9093E800898116
:104170009A810E944A1DE1CF8038E1F58091E800E4
:10418000877F8093E800809173028093F10045CF90
:10419000811130C090917A02923060F58091E800F0
:1041A000877F8093E800909373020E94DD1D8091C9
:1041B0007302882311F084E005C08091E30087FD3D
:1041C000FACF81E0809377020E94211B13C0809177
:1041D0007A02813079F481E0933009F080E08093B5
:1041E00075021092E9008091E800877F8093E800D3
:1041F0000E94DD1D8091E80083FF0AC08091E800E5
:10420000877F8093E8008091EB0080628093EB00D1
:10421000AA960FB6F894DEBF0FBECDBFDF91CF9147
:104220001F9108950895CF93809177028823A1F07C
:10423000C091E900CF709091EC00892F817090FDC2
:1042400080E8C82B1092E9008091E80083FD0E946D
:10425000C01FCF70C093E900CF91089597FB072E40
:1042600016F4009407D077FD09D00E94482107FC7E
:1042700005D03EF4909581959F4F08957095619576
:104280007F4F0895EE0FFF1F0590F491E02D0994E4
:10429000AA1BBB1B51E107C0AA1FBB1FA617B7076C
:1042A00010F0A61BB70B881F991F5A95A9F7809588
:1042B0009095BC01CD010895F999FECF92BD81BDC5
:1042C000F89A992780B50895A8E1B0E042E050E05F
:1042D0000C949021262FF999FECF92BD81BDF89ABA
:1042E000019700B4021639F01FBA20BD0FB6F8943A
:1042F000FA9AF99A0FBE08950396272F0E946B2110
:104300000E946A21252F0E946B21242F0C946B217F
:104310000196272F0E946B210C946A21DC01CB01AE
:10432000FC01F999FECF06C0F2BDE1BDF89A3196C5
:1043300000B40D9241505040B8F70895F894FFCF63
:10434000310E310E890E890EDB0EF70E5E0E5E0EFB
:10435000020F8E0F9D0F9D0FF90F5E0E5E0E021065
:1043600077107710801080108210801080108010DD
:10437000771077108710801080108710E91F1120A8
:10438000FA201120FA2044206520FA20BC20C82001
:104390002808641E140A321E16026E1ACD1AAC1AB0
:1043A000A81AA41A01E200E900EA00B500B600B7B5
:1043B00000CD008301CC008A0192019401210223E7
:1043C0000224022502260227022A02B300B4006F4B
:1043D000007000818283353497966766939291903E
:1043E0003733F5F6F736E200E900EA00B500B6002B
:1043F000B700CD008301CC008A0192019401210213
:10440000230224022502260227022A02B300B40056
:084410006F007000818283003F
:00000001FF
